{
  "contractName": "Voting",
  "abi": [
    {
      "constant": true,
      "inputs": [
        {
          "name": "candidate",
          "type": "bytes32"
        }
      ],
      "name": "totalVotesFor",
      "outputs": [
        {
          "name": "",
          "type": "uint8"
        }
      ],
      "payable": false,
      "stateMutability": "view",
      "type": "function"
    },
    {
      "constant": true,
      "inputs": [
        {
          "name": "candidate",
          "type": "bytes32"
        }
      ],
      "name": "validCandidate",
      "outputs": [
        {
          "name": "",
          "type": "bool"
        }
      ],
      "payable": false,
      "stateMutability": "view",
      "type": "function"
    },
    {
      "constant": true,
      "inputs": [
        {
          "name": "",
          "type": "bytes32"
        }
      ],
      "name": "votesReceived",
      "outputs": [
        {
          "name": "",
          "type": "uint8"
        }
      ],
      "payable": false,
      "stateMutability": "view",
      "type": "function"
    },
    {
      "constant": true,
      "inputs": [
        {
          "name": "",
          "type": "uint256"
        }
      ],
      "name": "candidateList",
      "outputs": [
        {
          "name": "",
          "type": "bytes32"
        }
      ],
      "payable": false,
      "stateMutability": "view",
      "type": "function"
    },
    {
      "constant": false,
      "inputs": [
        {
          "name": "candidate",
          "type": "bytes32"
        }
      ],
      "name": "voteForCandidate",
      "outputs": [],
      "payable": false,
      "stateMutability": "nonpayable",
      "type": "function"
    },
    {
      "inputs": [
        {
          "name": "candidateNames",
          "type": "bytes32[]"
        }
      ],
      "payable": false,
      "stateMutability": "nonpayable",
      "type": "constructor"
    }
  ],
  "bytecode": "0x6060604052341561000f57600080fd5b6040516103e53803806103e5833981016040528080518201919050508060019080519060200190610041929190610048565b50506100c0565b82805482825590600052602060002090810192821561008a579160200282015b82811115610089578251829060001916905591602001919060010190610068565b5b509050610097919061009b565b5090565b6100bd91905b808211156100b95760008160009055506001016100a1565b5090565b90565b610316806100cf6000396000f30060606040526004361061006d576000357c0100000000000000000000000000000000000000000000000000000000900463ffffffff1680632f265cf714610072578063392e6678146100b35780637021939f146100f2578063b13c744b14610133578063cc9ab26714610172575b600080fd5b341561007d57600080fd5b610097600480803560001916906020019091905050610199565b604051808260ff1660ff16815260200191505060405180910390f35b34156100be57600080fd5b6100d86004808035600019169060200190919050506101e5565b604051808215151515815260200191505060405180910390f35b34156100fd57600080fd5b610117600480803560001916906020019091905050610245565b604051808260ff1660ff16815260200191505060405180910390f35b341561013e57600080fd5b6101546004808035906020019091905050610265565b60405180826000191660001916815260200191505060405180910390f35b341561017d57600080fd5b610197600480803560001916906020019091905050610289565b005b6000600115156101a8836101e5565b15151415156101b657600080fd5b600080836000191660001916815260200190815260200160002060009054906101000a900460ff169050919050565b600080600090505b60018054905081101561023a57826000191660018281548110151561020e57fe5b90600052602060002090015460001916141561022d576001915061023f565b80806001019150506101ed565b600091505b50919050565b60006020528060005260406000206000915054906101000a900460ff1681565b60018181548110151561027457fe5b90600052602060002090016000915090505481565b60011515610296826101e5565b15151415156102a157fe5b6001600080836000191660001916815260200190815260200160002060008282829054906101000a900460ff160192506101000a81548160ff021916908360ff160217905550505600a165627a7a723058200ea30b92498f488509d87dc6626f959e8ab239ab4ae74046956086b2d6ec6e1e0029",
  "source": "pragma solidity ^0.4.4;\n\ncontract Voting {\n\n  // liyuechun -> 10\n  // xietingfeng -> 5\n  // liudehua -> 20\n//   jiangzong -> 100\n// [\"liyuechun\",\"jiangzong\",\"liudehua\",\"zhangbozhi\"]\n  mapping (bytes32 => uint8) public votesReceived;\n\n\n  // 存储候选人名字的数组\n  bytes32[] public candidateList;\n\n\n  // 构造函数 初始化候选人名单\n  function Voting(bytes32[] candidateNames) {\n\n    candidateList = candidateNames;\n  }\n\n  // 查询某个候选人的总票数\n  function totalVotesFor(bytes32 candidate)  constant returns (uint8) {\n    require(validCandidate(candidate) == true);\n    // 或者\n    // assert(validCandidate(candidate) == true);\n    return votesReceived[candidate];\n  }\n\n  // 为某个候选人投票\n  function voteForCandidate(bytes32 candidate) {\n    assert(validCandidate(candidate) == true);\n    votesReceived[candidate] += 1;\n  }\n\n  // 检索投票的姓名是不是候选人的名字\n  function validCandidate(bytes32 candidate) constant returns (bool) {\n    for(uint i = 0; i < candidateList.length; i++) {\n      if (candidateList[i] == candidate) {\n        return true;\n      }\n    }\n    return false;\n  }\n}\n",
  "sourcePath": "/Users/liyuechun/Desktop/demo/1227/VotingDapp/contracts/VotingDapp.sol",
  "compiler": {
    "name": "solc",
    "version": "0.4.18+commit.9cf6e910.Emscripten.clang"
  },
  "schemaVersion": "1.0.1",
  "updatedAt": "2017-12-27T08:42:46.908Z"
}